{"abi":[{"type":"constructor","inputs":[{"name":"_feeReceiver","type":"address","internalType":"address"}],"stateMutability":"nonpayable"},{"type":"function","name":"DISPUTE_LONG_TIMEOUT","inputs":[],"outputs":[{"name":"","type":"uint256","internalType":"uint256"}],"stateMutability":"view"},{"type":"function","name":"DOMAIN_SEPARATOR","inputs":[],"outputs":[{"name":"","type":"bytes32","internalType":"bytes32"}],"stateMutability":"view"},{"type":"function","name":"GRACE_PERIOD","inputs":[],"outputs":[{"name":"","type":"uint256","internalType":"uint256"}],"stateMutability":"view"},{"type":"function","name":"TIMEOUT_BUFFER","inputs":[],"outputs":[{"name":"","type":"uint256","internalType":"uint256"}],"stateMutability":"view"},{"type":"function","name":"WALLET_BYTECODE_HASH","inputs":[],"outputs":[{"name":"","type":"bytes32","internalType":"bytes32"}],"stateMutability":"view"},{"type":"function","name":"acceptEscrow","inputs":[{"name":"escrowId","type":"uint256","internalType":"uint256"},{"name":"sellerWalletSig","type":"bytes","internalType":"bytes"}],"outputs":[],"stateMutability":"nonpayable"},{"type":"function","name":"autoRelease","inputs":[{"name":"escrowId","type":"uint256","internalType":"uint256"}],"outputs":[],"stateMutability":"nonpayable"},{"type":"function","name":"cancelByTimeout","inputs":[{"name":"escrowId","type":"uint256","internalType":"uint256"}],"outputs":[],"stateMutability":"nonpayable"},{"type":"function","name":"confirmDelivery","inputs":[{"name":"escrowId","type":"uint256","internalType":"uint256"},{"name":"buyerWalletSig","type":"bytes","internalType":"bytes"}],"outputs":[],"stateMutability":"nonpayable"},{"type":"function","name":"confirmDeliverySigned","inputs":[{"name":"escrowId","type":"uint256","internalType":"uint256"},{"name":"coordSignature","type":"bytes","internalType":"bytes"},{"name":"deadline","type":"uint256","internalType":"uint256"},{"name":"nonce","type":"uint256","internalType":"uint256"},{"name":"buyerWalletSig","type":"bytes","internalType":"bytes"}],"outputs":[],"stateMutability":"nonpayable"},{"type":"function","name":"createEscrow","inputs":[{"name":"token","type":"address","internalType":"address"},{"name":"buyer","type":"address","internalType":"address"},{"name":"amount","type":"uint256","internalType":"uint256"},{"name":"maturityTimeDays","type":"uint256","internalType":"uint256"},{"name":"arbiter","type":"address","internalType":"address"},{"name":"title","type":"string","internalType":"string"},{"name":"ipfsHash","type":"string","internalType":"string"},{"name":"sellerWalletSig","type":"bytes","internalType":"bytes"}],"outputs":[{"name":"","type":"uint256","internalType":"uint256"}],"stateMutability":"nonpayable"},{"type":"function","name":"createEscrowAndDeposit","inputs":[{"name":"token","type":"address","internalType":"address"},{"name":"seller","type":"address","internalType":"address"},{"name":"amount","type":"uint256","internalType":"uint256"},{"name":"maturityTimeDays","type":"uint256","internalType":"uint256"},{"name":"arbiter","type":"address","internalType":"address"},{"name":"title","type":"string","internalType":"string"},{"name":"ipfsHash","type":"string","internalType":"string"},{"name":"buyerWalletSig","type":"bytes","internalType":"bytes"}],"outputs":[{"name":"escrowId","type":"uint256","internalType":"uint256"}],"stateMutability":"nonpayable"},{"type":"function","name":"deposit","inputs":[{"name":"escrowId","type":"uint256","internalType":"uint256"},{"name":"buyerWalletSig","type":"bytes","internalType":"bytes"}],"outputs":[],"stateMutability":"nonpayable"},{"type":"function","name":"disputeStatus","inputs":[{"name":"","type":"uint256","internalType":"uint256"}],"outputs":[{"name":"","type":"uint256","internalType":"uint256"}],"stateMutability":"view"},{"type":"function","name":"feeReceiver","inputs":[],"outputs":[{"name":"","type":"address","internalType":"address"}],"stateMutability":"view"},{"type":"function","name":"getEscrow","inputs":[{"name":"escrowId","type":"uint256","internalType":"uint256"}],"outputs":[{"name":"","type":"tuple","internalType":"struct PalindromeCryptoEscrow.EscrowDeal","components":[{"name":"token","type":"address","internalType":"address"},{"name":"buyer","type":"address","internalType":"address"},{"name":"seller","type":"address","internalType":"address"},{"name":"arbiter","type":"address","internalType":"address"},{"name":"wallet","type":"address","internalType":"address"},{"name":"amount","type":"uint256","internalType":"uint256"},{"name":"depositTime","type":"uint256","internalType":"uint256"},{"name":"maturityTime","type":"uint256","internalType":"uint256"},{"name":"disputeStartTime","type":"uint256","internalType":"uint256"},{"name":"state","type":"uint8","internalType":"enum PalindromeCryptoEscrow.State"},{"name":"buyerCancelRequested","type":"bool","internalType":"bool"},{"name":"sellerCancelRequested","type":"bool","internalType":"bool"},{"name":"tokenDecimals","type":"uint8","internalType":"uint8"},{"name":"sellerWalletSig","type":"bytes","internalType":"bytes"},{"name":"buyerWalletSig","type":"bytes","internalType":"bytes"},{"name":"arbiterWalletSig","type":"bytes","internalType":"bytes"}]}],"stateMutability":"view"},{"type":"function","name":"getNonceBitmap","inputs":[{"name":"escrowId","type":"uint256","internalType":"uint256"},{"name":"signer","type":"address","internalType":"address"},{"name":"wordIndex","type":"uint256","internalType":"uint256"}],"outputs":[{"name":"","type":"uint256","internalType":"uint256"}],"stateMutability":"view"},{"type":"function","name":"getWalletAuthorizationDigest","inputs":[{"name":"escrowId","type":"uint256","internalType":"uint256"},{"name":"participant","type":"address","internalType":"address"}],"outputs":[{"name":"digest","type":"bytes32","internalType":"bytes32"}],"stateMutability":"view"},{"type":"function","name":"nextEscrowId","inputs":[],"outputs":[{"name":"","type":"uint256","internalType":"uint256"}],"stateMutability":"view"},{"type":"function","name":"requestCancel","inputs":[{"name":"escrowId","type":"uint256","internalType":"uint256"},{"name":"walletSig","type":"bytes","internalType":"bytes"}],"outputs":[],"stateMutability":"nonpayable"},{"type":"function","name":"startDispute","inputs":[{"name":"escrowId","type":"uint256","internalType":"uint256"}],"outputs":[],"stateMutability":"nonpayable"},{"type":"function","name":"startDisputeSigned","inputs":[{"name":"escrowId","type":"uint256","internalType":"uint256"},{"name":"signature","type":"bytes","internalType":"bytes"},{"name":"deadline","type":"uint256","internalType":"uint256"},{"name":"nonce","type":"uint256","internalType":"uint256"}],"outputs":[],"stateMutability":"nonpayable"},{"type":"function","name":"submitArbiterDecision","inputs":[{"name":"escrowId","type":"uint256","internalType":"uint256"},{"name":"resolution","type":"uint8","internalType":"enum PalindromeCryptoEscrow.State"},{"name":"ipfsHash","type":"string","internalType":"string"},{"name":"arbiterWalletSig","type":"bytes","internalType":"bytes"}],"outputs":[],"stateMutability":"nonpayable"},{"type":"function","name":"submitDisputeMessage","inputs":[{"name":"escrowId","type":"uint256","internalType":"uint256"},{"name":"role","type":"uint8","internalType":"enum PalindromeCryptoEscrow.Role"},{"name":"ipfsHash","type":"string","internalType":"string"}],"outputs":[],"stateMutability":"nonpayable"},{"type":"event","name":"ArbiterWalletSigAttached","inputs":[{"name":"escrowId","type":"uint256","indexed":true,"internalType":"uint256"},{"name":"arbiterSig","type":"bytes","indexed":false,"internalType":"bytes"}],"anonymous":false},{"type":"event","name":"AutoReleased","inputs":[{"name":"escrowId","type":"uint256","indexed":true,"internalType":"uint256"},{"name":"seller","type":"address","indexed":true,"internalType":"address"},{"name":"amount","type":"uint256","indexed":false,"internalType":"uint256"},{"name":"fee","type":"uint256","indexed":false,"internalType":"uint256"}],"anonymous":false},{"type":"event","name":"BuyerWalletSigAttached","inputs":[{"name":"escrowId","type":"uint256","indexed":true,"internalType":"uint256"},{"name":"buyerSig","type":"bytes","indexed":false,"internalType":"bytes"}],"anonymous":false},{"type":"event","name":"Canceled","inputs":[{"name":"escrowId","type":"uint256","indexed":true,"internalType":"uint256"},{"name":"initiator","type":"address","indexed":true,"internalType":"address"},{"name":"amount","type":"uint256","indexed":false,"internalType":"uint256"}],"anonymous":false},{"type":"event","name":"DeliveryConfirmed","inputs":[{"name":"escrowId","type":"uint256","indexed":true,"internalType":"uint256"},{"name":"buyer","type":"address","indexed":true,"internalType":"address"},{"name":"seller","type":"address","indexed":true,"internalType":"address"},{"name":"amount","type":"uint256","indexed":false,"internalType":"uint256"},{"name":"fee","type":"uint256","indexed":false,"internalType":"uint256"}],"anonymous":false},{"type":"event","name":"DisputeDeadlinesSet","inputs":[{"name":"escrowId","type":"uint256","indexed":true,"internalType":"uint256"},{"name":"longDeadline","type":"uint256","indexed":false,"internalType":"uint256"}],"anonymous":false},{"type":"event","name":"DisputeMessagePosted","inputs":[{"name":"escrowId","type":"uint256","indexed":true,"internalType":"uint256"},{"name":"sender","type":"address","indexed":true,"internalType":"address"},{"name":"role","type":"uint8","indexed":false,"internalType":"enum PalindromeCryptoEscrow.Role"},{"name":"ipfsHash","type":"string","indexed":false,"internalType":"string"}],"anonymous":false},{"type":"event","name":"DisputeResolved","inputs":[{"name":"escrowId","type":"uint256","indexed":true,"internalType":"uint256"},{"name":"resolution","type":"uint8","indexed":false,"internalType":"enum PalindromeCryptoEscrow.State"},{"name":"arbiter","type":"address","indexed":false,"internalType":"address"},{"name":"amount","type":"uint256","indexed":false,"internalType":"uint256"},{"name":"fee","type":"uint256","indexed":false,"internalType":"uint256"}],"anonymous":false},{"type":"event","name":"DisputeStarted","inputs":[{"name":"escrowId","type":"uint256","indexed":true,"internalType":"uint256"},{"name":"initiator","type":"address","indexed":true,"internalType":"address"}],"anonymous":false},{"type":"event","name":"EscrowCreated","inputs":[{"name":"escrowId","type":"uint256","indexed":true,"internalType":"uint256"},{"name":"buyer","type":"address","indexed":true,"internalType":"address"},{"name":"seller","type":"address","indexed":true,"internalType":"address"},{"name":"token","type":"address","indexed":false,"internalType":"address"},{"name":"amount","type":"uint256","indexed":false,"internalType":"uint256"},{"name":"arbiter","type":"address","indexed":false,"internalType":"address"},{"name":"maturityTime","type":"uint256","indexed":false,"internalType":"uint256"},{"name":"title","type":"string","indexed":false,"internalType":"string"},{"name":"ipfsHash","type":"string","indexed":false,"internalType":"string"}],"anonymous":false},{"type":"event","name":"EscrowCreatedAndDeposited","inputs":[{"name":"escrowId","type":"uint256","indexed":true,"internalType":"uint256"},{"name":"buyer","type":"address","indexed":true,"internalType":"address"},{"name":"amount","type":"uint256","indexed":false,"internalType":"uint256"}],"anonymous":false},{"type":"event","name":"PaymentDeposited","inputs":[{"name":"escrowId","type":"uint256","indexed":true,"internalType":"uint256"},{"name":"buyer","type":"address","indexed":true,"internalType":"address"},{"name":"amount","type":"uint256","indexed":false,"internalType":"uint256"}],"anonymous":false},{"type":"event","name":"PayoutProposed","inputs":[{"name":"escrowId","type":"uint256","indexed":true,"internalType":"uint256"},{"name":"recipient","type":"address","indexed":false,"internalType":"address"},{"name":"netAmount","type":"uint256","indexed":false,"internalType":"uint256"},{"name":"feeRecipient","type":"address","indexed":false,"internalType":"address"},{"name":"feeAmount","type":"uint256","indexed":false,"internalType":"uint256"}],"anonymous":false},{"type":"event","name":"RequestCancel","inputs":[{"name":"escrowId","type":"uint256","indexed":true,"internalType":"uint256"},{"name":"requester","type":"address","indexed":true,"internalType":"address"}],"anonymous":false},{"type":"event","name":"SellerAccepted","inputs":[{"name":"escrowId","type":"uint256","indexed":true,"internalType":"uint256"},{"name":"seller","type":"address","indexed":true,"internalType":"address"}],"anonymous":false},{"type":"event","name":"SellerWalletSigAttached","inputs":[{"name":"escrowId","type":"uint256","indexed":true,"internalType":"uint256"},{"name":"sellerSig","type":"bytes","indexed":false,"internalType":"bytes"}],"anonymous":false},{"type":"event","name":"StateChanged","inputs":[{"name":"escrowId","type":"uint256","indexed":true,"internalType":"uint256"},{"name":"oldState","type":"uint8","indexed":false,"internalType":"enum PalindromeCryptoEscrow.State"},{"name":"newState","type":"uint8","indexed":true,"internalType":"enum PalindromeCryptoEscrow.State"}],"anonymous":false},{"type":"event","name":"WalletCreated","inputs":[{"name":"escrowId","type":"uint256","indexed":true,"internalType":"uint256"},{"name":"wallet","type":"address","indexed":true,"internalType":"address"}],"anonymous":false},{"type":"error","name":"InvalidNonce","inputs":[]},{"type":"error","name":"NotParticipant","inputs":[]},{"type":"error","name":"OnlyArbiter","inputs":[]},{"type":"error","name":"OnlyBuyer","inputs":[]},{"type":"error","name":"OnlyBuyerOrSeller","inputs":[]},{"type":"error","name":"OnlySeller","inputs":[]},{"type":"error","name":"SignatureAlreadyUsed","inputs":[]},{"type":"error","name":"SignatureLengthInvalid","inputs":[]},{"type":"error","name":"SignatureSInvalid","inputs":[]},{"type":"error","name":"SignatureVInvalid","inputs":[]}],"bytecode":{"object":"0x61010080604052346101bf576020816174c2803803809161002082856101c3565b8339810103126101bf57516001600160a01b0381168082036101bf5760015f551561018d576080524660e05260405161005a6040826101c3565b601681527f50616c696e64726f6d6543727970746f457363726f7700000000000000000000602090910152604080517f214be339dbd101005f8c34eca4dc81d275788130af1987d8fb35ea9c0a925bfa916100b590826101c3565b600181526020810190603160f81b82525190206040519060208201927f8b73c3c69bb8fe3d512ecc4cf759cc79239f7b179b0ffacaa9a75d522b39400f8452604083015260608201524660808201523060a082015260a0815261011960c0826101c3565b51902060c05261163660405161013260208301826101c3565b8181526020810191615e8c833951902060a052604051615c9190816101fb823960805181818161094f01528181612731015281816142740152614309015260a05181611951015260c05181613b72015260e05181613b4c0152f35b60405162461bcd60e51b815260206004820152600a602482015269466565546f207a65726f60b01b6044820152606490fd5b5f80fd5b601f909101601f19168101906001600160401b038211908210176101e657604052565b634e487b7160e01b5f52604160045260245ffdfe60a06040526004361015610011575f80fd5b5f3560e01c806306075a1514612ef457806310f169e814612eca5780631452483b14612ead5780632d34515b14612a425780632d471a50146123ae5780632f9bfda214611f1d578063311a2e5514611b505780633644e51514611b2e5780634186928c14611b12578063459b860e14611974578063589ac8e31461193a5780635d303519146116a85780636232ef6014611428578063708f65ca146111de5780637d19e59614610f1257806383504156146109eb57806389cb29dd146109ce5780639dede53c1461097e578063b3f006741461093a578063c0cfa7e5146107b8578063c1a287e21461079b578063c37775a314610511578063d4ffbee41461032b5763da183b0214610121575f80fd5b346103275760203660031901126103275760043561013d613a79565b61014a60015482106132e5565b5f8181526002602052604090206001015461016f906001600160a01b03161515613329565b5f818152600260205260409020600101546001600160a01b0316330361031857805f52600260205260405f20600981015460ff811660068110156103045760016101b991146137be565b6101c7600883015415613802565b60ff8160081c16156102ca5760101c60ff16610290576101ec6006820154151561383f565b60078101549062015180820180921161027c5761020c6005924211613878565b610224604161021e600b8401546136d4565b146135f1565b61022d83613dd2565b6001810154610245906001600160a01b0316846142c8565b50500154906040519182527feb8b5b87fbea5b732b8f4fd82b65d9afef713c799d98da83090f22c45577998d60203393a360015f55005b634e487b7160e01b5f52601160045260245ffd5b60405162461bcd60e51b81526020600482015260126024820152714d757475616c2063616e63656c20646f6e6560701b6044820152606490fd5b60405162461bcd60e51b8152602060048201526012602482015271135d5cdd081c995c5d595cdd08199a5c9cdd60721b6044820152606490fd5b634e487b7160e01b5f52602160045260245ffd5b6386efbb5560e01b5f5260045ffd5b5f80fd5b34610327576040366003190112610327576004356103476131b7565b61035460015483106132e5565b5f82815260026020526040902060010154610379906001600160a01b03161515613329565b5f828152600260205260409020600181015490916001600160a01b039081169116811480156104fb575b80156104e5575b156104ac576104216104a260209461042f60409560168888516103cd8a8261340b565b828152017514185b1a5b991c9bdb59515cd8dc9bddd5d85b1b195d60521b8152206103f6613a0e565b89815191012091600460018060a01b03910154169283916104218a519384928d840196469188613a2d565b03601f19810183528261340b565b51902094865191888301937f783cf3fdc83d5b0c9e236f4e0bfa8f022a2090d21a4c53f5f99df0d607781fa1855288840152606083015260808201526080815261047a60a08261340b565b51902084519283918783019586909160429261190160f01b8352600283015260228201520190565b5190209051908152f35b60405162461bcd60e51b8152602060048201526011602482015270139bdd0818481c185c9d1a58da5c185b9d607a1b6044820152606490fd5b5060038201546001600160a01b031681146103aa565b5060028201546001600160a01b031681146103a3565b346103275761051f36613285565b90610528613a79565b61053560015484106132e5565b5f8381526002602052604090206001015461055a906001600160a01b03161515613329565b5f838152600260205260409020600101546001600160a01b0316330361031857825f52600260205260405f209160ff60098401541660068110156103045760016105a491146137be565b6105bc60416105b6600a8601546136d4565b1461377d565b6105c8604182146135f1565b6105d28183613acd565b600b8301916001600160401b0382116107875784916105f184546136d4565b601f8111610735575b505f93601f82116001146106c357815f516020615bdc5f395f51905f5294955f916106b8575b508260011b905f198460031b1c19161790555b61064a60405192839260208452602084019161370c565b0390a261065682613da1565b60028101546001600160a01b0316917f8bcf349ab354486b68c142cea7235e4f7f31f6a425466f569c8ac1d5bc4d0007604061069285846141e9565b9050600560018060a01b036001870154169501549082519182526020820152a460015f55005b905083013588610620565b601f198216815f5260205f20905f5b81811061071a575095835f516020615bdc5f395f51905f52969710610701575b5050600182811b019055610633565b8401355f19600385901b60f8161c1916905587806106f2565b8786013583556020978801978a9750600190930192016106d2565b90919250835f5260205f20601f830160051c8101916020841061077d575b90601f88959493920160051c01905b81811061076f57506105fa565b5f8155879450600101610762565b9091508190610753565b634e487b7160e01b5f52604160045260245ffd5b34610327575f366003190112610327576020604051620151808152f35b34610327576020366003190112610327576004356107d4613a79565b6107e160015482106132e5565b5f81815260026020526040902060010154610806906001600160a01b03161515613329565b805f52600260205260405f2060018060a01b036001820154163314159081610922575b50610913575f81815260026020526040902060038101546001600160a01b0316156108df5760ff600982015416600681101561030457600161086b91146137be565b61087482613d30565b60084291015562278d00420180421161027c577f1a9502b6f661da8b0573a0617c121cabe2e93ea05d5239cfab6e9d1734b928c960208392604051908152a233907fd658effe7cf013e5a508b3f1a373b92566494d8b6a7c2970fc964932de1c4dab5f80a360015f55005b60405162461bcd60e51b815260206004820152600c60248201526b2d32b9379030b93134ba32b960a11b6044820152606490fd5b631cfe2f0560e11b5f5260045ffd5b600201546001600160a01b0316331415905082610829565b34610327575f366003190112610327576040517f00000000000000000000000000000000000000000000000000000000000000006001600160a01b03168152602090f35b34610327576060366003190112610327576109976131b7565b6004355f52600560205260405f209060018060a01b03165f5260205260405f206044355f52602052602060405f2054604051908152f35b34610327575f366003190112610327576020600154604051908152f35b34610327576109f936613285565b90610a02613a79565b610a0f60015484106132e5565b5f83815260026020526040902060010154610a34906001600160a01b03161515613329565b825f52600260205260405f2060018060a01b036001820154163314159081610efa575b5061091357825f52600260205260405f2090600982019081549360ff85166006811015610304576001610a8a9114613934565b610a996006850154151561383f565b610aa7600885015415613802565b60418103610ec057610ab98183613acd565b600184019460018060a01b0386541633145f14610d13575060ff835460081c16610cce57600b8401916001600160401b038211610787578691610afc84546136d4565b601f8111610c7c575b505f93601f8211600114610c0a57815f516020615bdc5f395f51905f5294955f91610bff575b508260011b905f198460031b1c19161790555b610b5560405192839260208452602084019161370c565b0390a2805461ff0019166101001781555b5460ff8160081c169081610bf1575b5015610bc457610245600592610b93604161021e600b8601546136d4565b610ba560416105b6600a8601546136d4565b610bae85613dd2565b546001600160a01b0316846142c8565b60015f55005b505033907f88a867d5d9b489598a3f5e5c8d5c1da163ed116737b70444bac744920904a5735f80a3610bbe565b60ff915060101c1684610b75565b90508301358a610b2b565b601f198216815f5260205f20905f5b818110610c61575095835f516020615bdc5f395f51905f52969710610c48575b5050600182811b019055610b3e565b8401355f19600385901b60f8161c191690558980610c39565b8786013583556020978801978c975060019093019201610c19565b90919250835f5260205f20601f830160051c81019160208410610cc4575b90601f8a959493920160051c01905b818110610cb65750610b05565b5f8155899450600101610ca9565b9091508190610c9a565b60405162461bcd60e51b815260206004820152601760248201527f427579657220616c7265616479207265717565737465640000000000000000006044820152606490fd5b60101c60ff16610e7b57600a8401916001600160401b038211610787578691610d3c84546136d4565b601f8111610e29575b505f93601f8211600114610db757815f516020615bbc5f395f51905f5294955f91610dac575b508260011b905f198460031b1c19161790555b610d9560405192839260208452602084019161370c565b0390a2805462ff0000191662010000178155610b66565b90508301358a610d6b565b601f198216815f5260205f20905f5b818110610e0e575095835f516020615bbc5f395f51905f52969710610df5575b5050600182811b019055610d7e565b8401355f19600385901b60f8161c191690558980610de6565b8786013583556020978801978c975060019093019201610dc6565b90919250835f5260205f20601f830160051c81019160208410610e71575b90601f8a959493920160051c01905b818110610e635750610d45565b5f8155899450600101610e56565b9091508190610e47565b60405162461bcd60e51b815260206004820152601860248201527f53656c6c657220616c72656164792072657175657374656400000000000000006044820152606490fd5b60405162461bcd60e51b81526020600482015260126024820152714d697373696e672077616c6c65742073696760701b6044820152606490fd5b600201546001600160a01b0316331415905084610a57565b346103275760203660031901126103275760043560606101e0604051610f37816133ef565b5f81525f60208201525f60408201525f838201525f60808201525f60a08201525f60c08201525f60e08201525f6101008201525f6101208201525f6101408201525f6101608201525f610180820152826101a0820152826101c08201520152610fa360015482106132e5565b5f81815260026020526040902060010154610fc8906001600160a01b03161515613329565b5f52600260205260405f20604051610fdf816133ef565b81546001600160a01b0390811682526001830154811660208301526002830154811660408301526003830154811660608301526004830154166080820152600582015460a082015260068083015460c0830152600783015460e08301526008830154610100830152600983015460ff811691821015610304576111da9360ff600c926110bb94610120870152818160081c161515610140870152818160101c16151561016087015260181c1661018085015261109d600a820161396e565b6101a08501526110af600b820161396e565b6101c08501520161396e565b6101e08201526040519182916020835260018060a01b03815116602084015260018060a01b03602082015116604084015260018060a01b03604082015116606084015260018060a01b03606082015116608084015260018060a01b0360808201511660a084015260a081015160c084015260c081015160e084015260e08101516101008401526101008101516101208401526111616101208201516101408501906132b4565b6101408101511515610160840152610160810151151561018084015260ff610180820151166101a08401526101e06111c56111af6101a08401516102006101c08801526102208701906132c1565b6101c0840151868203601f1901848801526132c1565b910151838203601f19016102008501526132c1565b0390f35b34610327576111ec36613285565b91906111f6613a79565b61120360015483106132e5565b5f82815260026020526040902060010154611228906001600160a01b03161515613329565b815f52600260205260405f2061124b60018060a01b0360028301541633146138ba565b60ff6009820154169060068210156103045761126b6001600a9314613934565b01928354611278816136d4565b6113f0576112886041831461377d565b6112928284613acd565b6001600160401b038211610787576112a9906136d4565b601f81116113ab575b505f93601f821160011461133c57815f516020615bbc5f395f51905f5294955f91611331575b508260011b905f198460031b1c19161790555b61132860405192839233877f5b09e2f1aabe74a8fc19114f298046a9fa1214365ec1d728e534a291aff17a4f5f80a360208452602084019161370c565b0390a260015f55005b9050830135866112d8565b601f19821694815f5260205f20905f5b8781106113935750835f516020615bbc5f395f51905f5296971061137a575b5050600182811b0190556112eb565b8401355f19600385901b60f8161c19169055858061136b565b9091602060018192858901358155019301910161134c565b845f5260205f20601f830160051c810191602084106113e6575b601f0160051c01905b8181106113db57506112b2565b5f81556001016113ce565b90915081906113c5565b60405162461bcd60e51b815260206004820152601060248201526f105b1c9958591e481858d8d95c1d195960821b6044820152606490fd5b34610327576060366003190112610327576004356024359060048210918215610327576044356001600160401b0381116103275761146a90369060040161318a565b9190611474613a79565b61148160015485106132e5565b5f848152600260205260409020600101546114a6906001600160a01b03161515613329565b835f52600260205260405f2060018060a01b036001820154163314159081611690575b81611678575b5061166957835f52600260205260405f2060ff600982015416600681101561030457600203611635576115028483613e5f565b845f52600660205260405f205490600184145f146115cc57600101546001600160a01b0316330361159a578061153c6001809316156138f4565b175b845f52600660205260405f20556040519415610304577f4e71d2a3ce09c95d708a8bc888cb8838c8419bea1f25f6d07f2c601b173f720e9261158d92865260406020870152604086019161370c565b928033940390a360015f55005b60405162461bcd60e51b815260206004820152600a60248201526927b7363c90313abcb2b960b11b6044820152606490fd5b9060028403611601576002918201546115ef906001600160a01b031633146138ba565b6115fb828216156138f4565b1761153e565b60405162461bcd60e51b815260206004820152600c60248201526b496e76616c696420726f6c6560a01b6044820152606490fd5b60405162461bcd60e51b815260206004820152600c60248201526b139bdd08191a5cdc1d5d195960a21b6044820152606490fd5b63721c7c6760e11b5f5260045ffd5b600301546001600160a01b03163314159050866114cf565b60028101546001600160a01b031633141591506114c9565b34610327576116b636613285565b906116bf613a79565b6116cc60015484106132e5565b5f838152600260205260409020600101546116f1906001600160a01b03161515613329565b5f838152600260205260409020600101546001600160a01b0316330361031857825f52600260205260405f209160ff6009840154166006811015610304576118fe5761173f604182146135f1565b6117498183613acd565b600b8301916001600160401b03821161078757849161176884546136d4565b601f81116118ac575b505f93601f821160011461183a57815f516020615bdc5f395f51905f5294955f9161182f575b508260011b905f198460031b1c19161790555b6117c160405192839260208452602084019161370c565b0390a2805460048201546005830180549093926117ec926001600160a01b0390811691339116614091565b6006429101556117fb82613d70565b54906040519182527f71284872bb4c088a81295dff2513729babbccfeda38a8d824bb1a73bcaab494e60203393a360015f55005b905083013588611797565b601f198216815f5260205f20905f5b818110611891575095835f516020615bdc5f395f51905f52969710611878575b5050600182811b0190556117aa565b8401355f19600385901b60f8161c191690558780611869565b8786013583556020978801978a975060019093019201611849565b90919250835f5260205f20601f830160051c810191602084106118f4575b90601f88959493920160051c01905b8181106118e65750611771565b5f81558794506001016118d9565b90915081906118ca565b60405162461bcd60e51b8152602060048201526014602482015273139bdd08185dd85a5d1a5b99c81c185e5b595b9d60621b6044820152606490fd5b34610327575f3660031901126103275760206040517f00000000000000000000000000000000000000000000000000000000000000008152f35b3461032757602036600319011261032757600435611990613a79565b61199d60015482106132e5565b5f818152600260205260409020600101546119c2906001600160a01b03161515613329565b5f81815260026020819052604090912001546001600160a01b03163303611b0357805f52600260205260405f2090600982015460ff811690600682101561030457611a11600160ff93146137be565b611a1f600885015415613802565b60081c16611ac557611a366006830154151561383f565b600782015462015180810180911161027c57611a53904211613878565b611a6560416105b6600a8501546136d4565b611a6e81613da1565b60028201546001600160a01b0316917f489d0b4f43659843daba0a17983382a3e77f5399083ac5405143fcf6806f8ca0906040906005611aae86866141e9565b92905001549082519182526020820152a360015f55005b60405162461bcd60e51b8152602060048201526016602482015275109d5e595c881c995c5d595cdd19590818d85b98d95b60521b6044820152606490fd5b6342e8fb9360e11b5f5260045ffd5b34610327575f366003190112610327576020604051610e108152f35b34610327575f366003190112610327576020611b48613b49565b604051908152f35b3461032757611b5e366131cd565b98611b75858794979c939a9c999899969596613e03565b611b7f8686613e5f565b611b936001600160a01b03831615156134fe565b6001600160a01b0316988915611eeb57600198611bb2338c1415613537565b611bbd8c1515613577565b611bca610e4389106135b1565b611bd66041831461377d565b611be08282613acd565b611be983613eaf565b97611bfe8d611bf78b613fd6565b1115613631565b8a8060a01b038a1698338a141580611ee1575b611c1a90613670565b8b54608052611c2a6080516136ae565b8c55611c37608051613ff0565b996080515f5260026020528d60405f209d8e818060a01b0389166001600160601b0360a01b82541617815501906001600160601b0360a01b82541617905560028d0160018060a01b0333166001600160601b0360a01b82541617905560038d01906001600160601b0360a01b82541617905560048c0160018060a01b038b166001600160601b0360a01b8254161790558d60058d01556201518082029180830462015180149015171561027c57611cf1611d179242613367565b60078d015560098c01805463ff0000ff191660189290921b63ff00000016919091179055565b600a8a016001600160401b03831161078757611d3381546136d4565b601f8111611e9c575b505f601f8411600114611e0c57611da95f516020615bfc5f395f51905f529b9a999795938593611df29a98965f516020615bbc5f395f51905f52945f91611e01575b508560011b905f198760031b1c19161790555b6040519182916020835260805195602084019161370c565b0390a260405197889760018060a01b03166080517f470292d5e9c87e6d5a100a14c56a434c9f25e9e2be1d5efa70c3b5f9aeda505f5f80a3339c60076080519c0154928961372c565b0390a460206040516080518152f35b90508201355f611d7e565b815f5260205f20905f5b601f1986168110611e8457505f516020615bfc5f395f51905f529b9a9997959385935f516020615bbc5f395f51905f5293611da993611df29c9a98601f19811610611e6b575b5050600185811b019055611d91565b8301355f19600388901b60f8161c191690555f80611e5c565b90916020600181928588013581550193019101611e16565b815f5260205f20601f850160051c81019160208610611ed7575b601f0160051c01905b818110611ecc5750611d3c565b5f8155600101611ebf565b9091508190611eb6565b50898d1415611c11565b60405162461bcd60e51b815260206004820152600a6024820152694275796572207a65726f60b01b6044820152606490fd5b346103275760a0366003190112610327576004356024356001600160401b03811161032757611f5090369060040161318a565b9091604435916064356084356001600160401b03811161032757611f7890369060040161318a565b91611f81613a79565b611f8e60015486106132e5565b5f85815260026020526040902060010154611fb3906001600160a01b03161515613329565b42861180612399575b611fc590613374565b845f52600260205260405f209060ff6009830154166006811015610304576001611fef91146133b3565b60418503612360576120018589613acd565b61200d604185146135f1565b6120178484613acd565b600a820154612025906136d4565b6041146120319061377d565b6001820197600160a01b6001900389541695600284019688600160a01b60019003895416600160a01b600190036003880154169b600160a01b600190038854169c600589019d8e549060068b0154926040519560208701977f2175432d6c7eab3a2ef5708fc419540c0f4d274cabd17912c92683ed8466b5e989526040880152886060880152608087015260a086015260c085015260e08401526101008301526101208201528561014082015261014081526120ef6101608261340b565b5190206120fa613b49565b60405161190160f01b6020820190815260228201929092526042808201939093529182529061212a60628261340b565b519020612138368486613447565b61214191614337565b61214a90614368565b6001600160a01b031661215e81151561347d565b14612168906134bc565b6121729188613bf7565b875461218891906001600160a01b031687613cb7565b600b01916001600160401b03811161078757826121a68694546136d4565b601f811161230c575b505f601f83116001146122715792825f516020615bdc5f395f51905f5292604096947f8bcf349ab354486b68c142cea7235e4f7f31f6a425466f569c8ac1d5bc4d000798965f91612266575b508260011b905f198460031b1c19161790555b612224865192839260208452602084019161370c565b0390a261223084613da1565b546001600160a01b03169461224586856141e9565b91905060018060a01b0390541694549082519182526020820152a460015f55005b90508301358c6121fb565b601f19831690825f5260205f20915f5b8181106122f15750927f8bcf349ab354486b68c142cea7235e4f7f31f6a425466f569c8ac1d5bc4d00079795928592604098965f516020615bdc5f395f51905f5296106122d8575b5050600182811b01905561220e565b8401355f19600385901b60f8161c191690558b806122c9565b82870135845589975060019093019260209283019201612281565b9080929394505f5260205f20601f840160051c81019160208510612356575b90601f8896959493920160051c01905b81811061234857506121af565b5f815587955060010161233b565b909150819061232b565b60405162461bcd60e51b81526020600482015260116024820152704d697373696e6720636f6f72642073696760781b6044820152606490fd5b5062015180420180421161027c578610611fbc565b346103275760803660031901126103275760043560243560068110908115610327576044356001600160401b038111610327576123ef90369060040161318a565b9190926064356001600160401b0381116103275761241190369060040161318a565b93909161241c613a79565b61242960015488106132e5565b5f8781526002602052604090206001015461244e906001600160a01b03161515613329565b5f878152600260205260409020600301546001600160a01b03163303612a3357865f52600260205260405f209560ff600988015416600681101561030457600261249891146133b3565b5f936003861496878015612a26575b156129ec57895f52600660205260405f205460018116151590816129df575b5060088a015462278d0081019081811161027c5762279b100180911161027c5781156129d5575b501561299057895f52600460205260ff60405f20541661295957895f52600460205260405f20600160ff198254161790556041810361291e576125308183613acd565b600c8901916001600160401b038211610787578a9161254f84546136d4565b601f81116128cc575b505f93601f821160011461283c57817f514a487b739611aef8577751109f3612aef90abf478bc73849af4cdd1fa2135a94955f91612831575b508260011b905f198460031b1c19161790555b6125bb60405192839260208452602084019161370c565b0390a2875f526002602052600960405f2001916125dd8660ff855416946136bc565b15610304576126427f4e71d2a3ce09c95d708a8bc888cb8838c8419bea1f25f6d07f2c601b173f720e91868a5f516020615c3c5f395f51905f526020829761262860405180926132b4565ba3604051946003865260406020870152604086019161370c565b928033940390a361030457811561281d5760028301546001600160a01b0316915b845f5260026020528460405f20915f146127da575060ff6009600583015492015460181c16600281115f146127d0576001190160ff811161027c576126a790613fc5565b606482028281046064148315171561027c576127109004908082106127c85750925b818410156127835783820391821161027c577ffc4c84ff0bf9d937dea068e6c13c3a16c307d76a1c5b5173c40f03f68f421e0094865f516020615c1c5f395f51905f5260806005948198965b6040519160018060a01b03168252602082015260018060a01b037f0000000000000000000000000000000000000000000000000000000000000000166040820152866060820152a2015461276c60405180946132b4565b33602084015260408301526060820152a260015f55005b60405162461bcd60e51b815260206004820152601860248201527f416d6f756e7420746f6f20736d616c6c20666f722066656500000000000000006044820152606490fd5b9050926126c9565b506126a75f613fc5565b7ffc4c84ff0bf9d937dea068e6c13c3a16c307d76a1c5b5173c40f03f68f421e00946005915f516020615c1c5f395f51905f526080848198960154955f96612715565b60018301546001600160a01b031691612663565b90508301358e612591565b601f198216815f5260205f20905f5b8181106128a6575095837f514a487b739611aef8577751109f3612aef90abf478bc73849af4cdd1fa2135a96971061288d575b5050600182811b0190556125a4565b8401355f19600385901b60f8161c191690558d8061287e565b92949693955090602060018192868a013581550194019201908e9593919694929661284b565b90919250835f5260205f20601f830160051c81019160208410612914575b90601f8e959493920160051c01905b8181106129065750612558565b5f81558d94506001016128f9565b90915081906128ea565b60405162461bcd60e51b81526020600482015260136024820152724d697373696e6720617262697465722073696760681b6044820152606490fd5b60405162461bcd60e51b815260206004820152600f60248201526e105b1c9958591e48191958da591959608a1b6044820152606490fd5b60405162461bcd60e51b815260206004820152601860248201527f4e6565642065766964656e6365206f722074696d656f757400000000000000006044820152606490fd5b905042118b6124ed565b600291501615158b6124c6565b60405162461bcd60e51b815260206004820152601260248201527124b73b30b634b2103932b9b7b63aba34b7b760711b6044820152606490fd5b505f9550600487146124a7565b6372cc71e760e11b5f5260045ffd5b3461032757612a50366131cd565b969995612a6299959199949294613a79565b612a6c8383613e03565b612a768585613e5f565b612a8a6001600160a01b03881615156134fe565b6001600160a01b03861615612e7a57612aae6001600160a01b038716331415613537565b612ab9891515613577565b612ac6610e438c106135b1565b612ad2604189146135f1565b612adc888b613acd565b612ae587613eaf565b99612afa612af28c613fd6565b8b1015613631565b6001600160a01b03821698338a141580612e67575b612b1890613670565b6001549c8d9c8d612b28816136ae565b600155612b3490613ff0565b9e8f905f52600260205260405f209c8d8d600160a01b60019003166001600160601b0360a01b825416178155600101600160a01b6001900333166001600160601b0360a01b8254161790558d600281018d600160a01b60019003166001600160601b0360a01b825416179055600301906001600160601b0360a01b82541617905560048d0190600160a01b60019003166001600160601b0360a01b8254161790558c60058d01556201518082029180830462015180149015171561027c57611cf1612bff9242613367565b6001600160401b03811161078757612c1a600b8b01546136d4565b601f8111612e1f575b50938a979360209d97938b9a97938e975f601f8211600114612d5a57948b948b612d089f9a97958f9c5f516020615bdc5f395f51905f52819c97878f600b5f516020615bfc5f395f51905f529f9a612cf59d5f91612d4f575b508360011b905f198560031b1c1916179101555b612ca86040519260209284938452602084019161370c565b0390a26040519889986001600160a01b03168c7f470292d5e9c87e6d5a100a14c56a434c9f25e9e2be1d5efa70c3b5f9aeda505f5f80a360018060a01b03169c6007339d0154928961372c565b0390a433906001600160a01b0316614091565b600642910155612d1782613d70565b604051908152817f2c39794ba48d965361d6eb56f0d6366313044d1b5b1758c68643d3e3a39a2c4e843393a360015f55604051908152f35b90508401355f612c7c565b600b8e9a9998979695949e015f5260205f20905f5b601f1984168110612de75750938b612d089f8f9c9b8f98945f516020615bfc5f395f51905f529b97878f849f9d9993612cf59c5f516020615bdc5f395f51905f5295601f19811610612dce575b5050600b600183811b01910155612c90565b8401355f19600385901b60f8161c191690555f80612dbc565b93969a5093979b9d969a9c50602091949850600182918588013581550193019101928f9793928f9c9a969d9b9793928f9a9693612d6f565b600b8b015f5260205f20601f830160051c81019160208410612e5d575b601f0160051c01905b818110612e525750612c23565b5f8155600101612e45565b9091508190612e3c565b506001600160a01b0388168a1415612b0f565b60405162461bcd60e51b815260206004820152600b60248201526a53656c6c6572207a65726f60a81b6044820152606490fd5b34610327575f36600319011261032757602060405162278d008152f35b34610327576020366003190112610327576004355f526006602052602060405f2054604051908152f35b34610327576080366003190112610327576004356024356001600160401b03811161032757612f2790369060040161318a565b919060443592606435612f38613a79565b612f4560015485106132e5565b5f84815260026020526040902060010154612f6a906001600160a01b03161515613329565b42851180613175575b612f7c90613374565b835f52600260205260405f209260ff6009850154166006811015610304576130f9936130c792612fb160016130f394146133b3565b612fbb8282613acd565b6130ed60018060a01b03600189015416996130bf8a8c60018060a01b0360028d015416938c600360018060a01b03910154168d60018060a01b0381541660066005830154920154926040519560208701977f3ec4667e1948e2e97f54b4602b6bbfa8f3f98ff1036916ce75d84c59f9558f0289526040880152606087015288608087015260a086015260c085015260e08401526101008301526101208201528961014082015261014081526130726101608261340b565b5190206104216130ab613083613b49565b92604051928391602083019586909160429261190160f01b8352600283015260228201520190565b5190206130b9368787613447565b90614337565b969096614368565b6001600160a01b0386169a6130dd8c151561347d565b8b1490811561316b575b506134bc565b87613bf7565b84613cb7565b61310282613d30565b60084291015562278d00420180421161027c577f1a9502b6f661da8b0573a0617c121cabe2e93ea05d5239cfab6e9d1734b928c960208392604051908152a27fd658effe7cf013e5a508b3f1a373b92566494d8b6a7c2970fc964932de1c4dab5f80a360015f55005b90508a148b6130e7565b5062015180420180421161027c578510612f73565b9181601f84011215610327578235916001600160401b038311610327576020838186019501011161032757565b602435906001600160a01b038216820361032757565b90610100600319830112610327576004356001600160a01b038116810361032757916024356001600160a01b0381168103610327579160443591606435916084356001600160a01b0381168103610327579160a4356001600160401b038111610327578161323d9160040161318a565b9290929160c4356001600160401b038111610327578161325f9160040161318a565b9290929160e435906001600160401b038211610327576132819160040161318a565b9091565b9060406003198301126103275760043591602435906001600160401b038211610327576132819160040161318a565b9060068210156103045752565b805180835260209291819084018484015e5f828201840152601f01601f1916010190565b156132ec57565b60405162461bcd60e51b8152602060048201526015602482015274115cd8dc9bddc8191bd95cc81b9bdd08195e1a5cdd605a1b6044820152606490fd5b1561333057565b60405162461bcd60e51b815260206004820152600f60248201526e139bdd081a5b9a5d1a585b1a5e9959608a1b6044820152606490fd5b9190820180921161027c57565b1561337b57565b60405162461bcd60e51b815260206004820152601060248201526f496e76616c696420646561646c696e6560801b6044820152606490fd5b156133ba57565b60405162461bcd60e51b815260206004820152600d60248201526c496e76616c696420737461746560981b6044820152606490fd5b61020081019081106001600160401b0382111761078757604052565b90601f801991011681019081106001600160401b0382111761078757604052565b6001600160401b03811161078757601f01601f191660200190565b9291926134538261342c565b91613461604051938461340b565b829481845281830111610327578281602093845f960137010152565b1561348457565b60405162461bcd60e51b815260206004820152601060248201526f496e76616c6964207265636f7665727960801b6044820152606490fd5b156134c357565b60405162461bcd60e51b81526020600482015260136024820152722ab730baba3437b934bd32b21039b4b3b732b960691b6044820152606490fd5b1561350557565b60405162461bcd60e51b815260206004820152600a602482015269546f6b656e207a65726f60b01b6044820152606490fd5b1561353e57565b60405162461bcd60e51b815260206004820152601160248201527042757965722073656c6c65722073616d6560781b6044820152606490fd5b1561357e57565b60405162461bcd60e51b815260206004820152600b60248201526a416d6f756e74207a65726f60a81b6044820152606490fd5b156135b857565b60405162461bcd60e51b81526020600482015260116024820152704d6174757269747920746f6f206c6f6e6760781b6044820152606490fd5b156135f857565b60405162461bcd60e51b81526020600482015260116024820152704d697373696e672062757965722073696760781b6044820152606490fd5b1561363857565b60405162461bcd60e51b815260206004820152601060248201526f105b5bdd5b9d081d1bdbc81cdb585b1b60821b6044820152606490fd5b1561367757565b60405162461bcd60e51b815260206004820152600f60248201526e24b73b30b634b21030b93134ba32b960891b6044820152606490fd5b5f19811461027c5760010190565b9060068110156103045760ff80198354169116179055565b90600182811c92168015613702575b60208310146136ee57565b634e487b7160e01b5f52602260045260245ffd5b91607f16916136e3565b908060209392818452848401375f828201840152601f01601f1916010190565b96949261377a98969261376c959260018060a01b03168952602089015260018060a01b03166040880152606087015260c0608087015260c086019161370c565b9260a081850391015261370c565b90565b1561378457565b60405162461bcd60e51b81526020600482015260126024820152714d697373696e672073656c6c65722073696760701b6044820152606490fd5b156137c557565b60405162461bcd60e51b81526020600482015260156024820152744e6f74206177616974696e672064656c697665727960581b6044820152606490fd5b1561380957565b60405162461bcd60e51b815260206004820152600e60248201526d446973707574652061637469766560901b6044820152606490fd5b1561384657565b60405162461bcd60e51b815260206004820152600a602482015269139bc819195c1bdcda5d60b21b6044820152606490fd5b1561387f57565b60405162461bcd60e51b8152602060048201526013602482015272477261636520706572696f642061637469766560681b6044820152606490fd5b156138c157565b60405162461bcd60e51b815260206004820152600b60248201526a27b7363c9039b2b63632b960a91b6044820152606490fd5b156138fb57565b60405162461bcd60e51b8152602060048201526011602482015270105b1c9958591e481cdd589b5a5d1d1959607a1b6044820152606490fd5b1561393b57565b60405162461bcd60e51b815260206004820152600b60248201526a57726f6e6720737461746560a81b6044820152606490fd5b9060405191825f825492613981846136d4565b80845293600181169081156139ec57506001146139a8575b506139a69250038361340b565b565b90505f9291925260205f20905f915b8183106139d05750509060206139a6928201015f613999565b60209193508060019154838589010152019101909184926139b7565b9050602092506139a694915060ff191682840152151560051b8201015f613999565b60405190613a1d60408361340b565b60018252603160f81b6020830152565b926080929594919560a08501967f8b73c3c69bb8fe3d512ecc4cf759cc79239f7b179b0ffacaa9a75d522b39400f865260208601526040850152606084015260018060a01b0316910152565b60025f5414613a885760025f55565b60405162461bcd60e51b815260206004820152601f60248201527f5265656e7472616e637947756172643a207265656e7472616e742063616c6c006044820152606490fd5b90604103613b3a576fa2a8918ca85bafe22016d0b997e4df60600160ff1b03602060408301355f1a92013511613b2b57601b8114159081613b1f575b50613b1057565b6307839aef60e21b5f5260045ffd5b601c915014155f613b09565b6354b34b0360e01b5f5260045ffd5b6354f3472360e01b5f5260045ffd5b467f000000000000000000000000000000000000000000000000000000000000000003613b94577f000000000000000000000000000000000000000000000000000000000000000090565b60166020604051613ba660408261340b565b828152017550616c696e64726f6d6543727970746f457363726f7760501b815220610421613bf1613bd5613a0e565b6020815191012060405192839160208301953091469188613a2d565b51902090565b91604103613b3a57602081013560408201355f1a6fa2a8918ca85bafe22016d0b997e4df60600160ff1b038211613b2b57601b8114159081613cab575b50613b10576040519160208301933060601b85526034840152356054830152607482015246609482015260948152613c6d60b48261340b565b519020805f52600360205260ff60405f205416613c9c575f52600360205260405f20600160ff19825416179055565b63900bb2c960e01b5f5260045ffd5b601c915014155f613c34565b91908160081c90835f52600560205260405f2060018060a01b0382165f5260205260405f20825f52602052600160ff60405f205494161b93848416613d21575f52600560205260405f209060018060a01b03165f5260205260405f20905f526020521760405f2055565b633ab3447f60e11b5f5260045ffd5b600290805f52816020525f516020615c3c5f395f51905f526020600960405f2001613d608560ff835416926136bc565b613d6d60405180926132b4565ba3565b600190805f5260026020525f516020615c3c5f395f51905f526020600960405f2001613d608560ff835416926136bc565b600390805f5260026020525f516020615c3c5f395f51905f526020600960405f2001613d608560ff835416926136bc565b600590805f5260026020525f516020615c3c5f395f51905f526020600960405f2001613d608560ff835416926136bc565b508015159081613e52575b5015613e1657565b60405162461bcd60e51b8152602060048201526014602482015273092dcecc2d8d2c840e8d2e8d8ca40d8cadccee8d60631b6044820152606490fd5b6101f4915011155f613e0e565b506101f410613e6a57565b60405162461bcd60e51b815260206004820152601860248201527f496e76616c696420495046532068617368206c656e67746800000000000000006044820152606490fd5b60405163313ce56760e01b815290602090829060049082906001600160a01b0316617530fa5f9181613f87575b50613f265760405162461bcd60e51b815260206004820152601f60248201527f546f6b656e206d75737420696d706c656d656e7420646563696d616c732829006044820152606490fd5b60ff811660068110159081613f7b575b5015613f3f5790565b60405162461bcd60e51b8152602060048201526014602482015273556e737570706f7274656420646563696d616c7360601b6044820152606490fd5b6012915011155f613f36565b9091506020813d602011613fbd575b81613fa36020938361340b565b81010312610327575160ff8116810361032757905f613edc565b3d9150613f96565b60ff16604d811161027c57600a0a90565b613fdf90613fc5565b80600a0290600a82040361027c5790565b60405160208101908282526020815261400a60408261340b565b5190206040519091614084611636614025602082018561340b565b808452602084019061458682396020604051938185019030825260408601526040855261405360608661340b565b60405194859383850197518091895e840190838201905f8252519283915e01015f815203601f19810183528261340b565b51905ff590811561032757565b6040516323b872dd60e01b602082019081526001600160a01b039384166024830152929093166044840152606480840194909452928252614150925f9081906140db60848661340b565b60018060a01b031692604051946140f360408761340b565b602086527f5361666545524332303a206c6f772d6c6576656c2063616c6c206661696c65646020870152519082855af13d156141e1573d916141348361342c565b92614142604051948561340b565b83523d5f602085013e6144e8565b80519081159182156141be575b50501561416657565b60405162461bcd60e51b815260206004820152602a60248201527f5361666545524332303a204552433230206f7065726174696f6e20646964206e6044820152691bdd081cdd58d8d9595960b21b6064820152608490fd5b819250906020918101031261032757602001518015158103610327575f8061415d565b6060916144e8565b91825f52600260205260405f209260ff6009600586015495015460181c16600281115f146142be576001190160ff811161027c5761422690613fc5565b606485028581046064148615171561027c576127109004908082106142b65750925b848410156127835783850394851161027c57604080516001600160a01b039283168152602081018790527f000000000000000000000000000000000000000000000000000000000000000090921690820152606081018490525f516020615c1c5f395f51905f5290608090a2565b905092614248565b506142265f613fc5565b91825f526002602052600560405f200154925f516020615c1c5f395f51905f5260805f946040519060018060a01b0316815286602082015260018060a01b037f00000000000000000000000000000000000000000000000000000000000000001660408201525f6060820152a2565b9060418151145f1461435f5761328191602082015190606060408401519301515f1a9061446c565b50505f90600290565b600581101561030457806143795750565b600181036143c65760405162461bcd60e51b815260206004820152601860248201527f45434453413a20696e76616c6964207369676e617475726500000000000000006044820152606490fd5b600281036144135760405162461bcd60e51b815260206004820152601f60248201527f45434453413a20696e76616c6964207369676e6174757265206c656e677468006044820152606490fd5b60031461441c57565b60405162461bcd60e51b815260206004820152602260248201527f45434453413a20696e76616c6964207369676e6174757265202773272076616c604482015261756560f01b6064820152608490fd5b6fa2a8918ca85bafe22016d0b997e4df60600160ff1b0384116144dd576020935f9360ff60809460405194855216868401526040830152606082015282805260015afa156144d2575f516001600160a01b038116156144ca57905f90565b505f90600190565b6040513d5f823e3d90fd5b505050505f90600390565b9192901561454a57508151156144fc575090565b3b156145055790565b60405162461bcd60e51b815260206004820152601d60248201527f416464726573733a2063616c6c20746f206e6f6e2d636f6e74726163740000006044820152606490fd5b82519091501561455d5750805190602001fd5b60405162461bcd60e51b8152602060048201529081906145819060248301906132c1565b0390fdfe61010080604052346101ce57604081611636803803809161002082856101d2565b8339810103126101ce5780516001600160a01b038116918282036101ce57602001519160015f551561019b5760805260a0524660e0526040516100646040826101d2565b601681527f50616c696e64726f6d65457363726f7757616c6c657400000000000000000000602090910152604080517fd5841ac2316671d82a0b6316f3b37c25b9263de2e5c9e54cefc98911e9c1f8df916100bf90826101d2565b600181526020810190603160f81b82525190206040519060208201927f8b73c3c69bb8fe3d512ecc4cf759cc79239f7b179b0ffacaa9a75d522b39400f8452604083015260608201524660808201523060a082015260a0815261012360c0826101d2565b51902060c05260405161142c908161020a82396080518181816101b3015281816106990152818161073601528181610a0f0152610b20015260a0518181816101830152818161062c0152818161066e015281816109dc01528181610aec0152610d1b015260c05181610e7c015260e05181610d9f0152f35b60405162461bcd60e51b815260206004820152600b60248201526a457363726f77207a65726f60a81b6044820152606490fd5b5f80fd5b601f909101601f19168101906001600160401b038211908210176101f557604052565b634e487b7160e01b5f52604160045260245ffdfe60806040526004361015610011575f80fd5b5f3560e01c806312065fe0146100a4578063145d07051461009f5780632a5851a21461009a5780633644e515146100955780633ccfd60b146100905780635753d9891461008b57806393e74d7f14610086578063c80ec522146100815763e42a96e71461007c575f80fd5b610721565b6106ff565b61064f565b610615565b61014d565b610133565b61010c565b6100db565b346100c6575f3660031901126100c65760206100be6109cd565b604051908152f35b5f80fd5b6001600160a01b038116036100c657565b346100c65760203660031901126100c65760206101026004356100fd816100ca565b610add565b6040519015158152f35b346100c65760203660031901126100c65760206100be60043561012e816100ca565b610cee565b346100c6575f3660031901126100c65760206100be610d9d565b346100c6575f3660031901126100c65760025f54146105d05760025f5560015460ff166105c157604051633e8cf2cb60e11b81527f0000000000000000000000000000000000000000000000000000000000000000600482018190526001600160a01b037f0000000000000000000000000000000000000000000000000000000000000000165f83602481845afa928315610412575f9361059d575b50610120830151916101fa83610c37565b61020383610c37565b6003831493841580610589575b80610575575b6105665780516001600160a01b0316156105575760208101805190919061024d906001600160a01b03165b6001600160a01b031690565b33141580610537575b80610517575b61050857600261026b82610ec5565b106104f957610281600160ff1981541617600155565b8051610295906001600160a01b0316610241565b6040516370a0823160e01b81523060048201526001600160a01b0382169790969193916020886024818c5afa978815610412575f986104d4575b506102d990610c37565b156104685750604081015160049291906020906001600160a01b03169560405194858092632cfc019d60e21b82525afa928315610412575f93610437575b506001600160a01b038316958615610428577f2b50bbeab304785e1247f1e22da0321897c428768d93e80ab1811e9baa9559019361036861037b926103626101808a96015160ff1690565b9061109f565b94819891928680610417575b5050610f5c565b6040805195865260208601929092526001600160a01b031693a45b6040516370a0823160e01b815230600482015290602090829060249082905afa908115610412575f916103e3575b506103d4576103d260015f55565b005b631fea47ef60e01b5f5260045ffd5b610405915060203d60201161040b575b6103fd8183610779565b8101906109be565b5f6103c4565b503d6103f3565b6109b3565b6104219183610f5c565b5f86610374565b630665334760e11b5f5260045ffd5b61045a91935060203d602011610461575b6104528183610779565b810190610c46565b915f610317565b503d610448565b515f9594507f2b50bbeab304785e1247f1e22da0321897c428768d93e80ab1811e9baa955901926104cc9250906104ab9086906001600160a01b03168093610f5c565b604080519586525f60208701526001600160a01b0390911694918291820190565b0390a4610396565b6102d99198506104f29060203d60201161040b576103fd8183610779565b97906102cf565b633724e34360e11b5f5260045ffd5b630eebd6cd60e21b5f5260045ffd5b50606081015161052f906001600160a01b0316610241565b33141561025c565b50604081015161054f906001600160a01b0316610241565b331415610256565b6381c609f760e01b5f5260045ffd5b635448814d60e11b5f5260045ffd5b5061057f84610c37565b6005841415610216565b5061059384610c37565b6004841415610210565b6105ba9193503d805f833e6105b28183610779565b810190610847565b915f6101e9565b636507689f60e01b5f5260045ffd5b60405162461bcd60e51b815260206004820152601f60248201527f5265656e7472616e637947756172643a207265656e7472616e742063616c6c006044820152606490fd5b346100c6575f3660031901126100c65760206040517f00000000000000000000000000000000000000000000000000000000000000008152f35b346100c6575f3660031901126100c657604051633e8cf2cb60e11b81527f000000000000000000000000000000000000000000000000000000000000000060048201525f816024817f00000000000000000000000000000000000000000000000000000000000000006001600160a01b03165afa8015610412576106da915f916106e5575b50610ec5565b604051908152602090f35b6106f991503d805f833e6105b28183610779565b5f6106d4565b346100c6575f3660031901126100c657602060ff600154166040519015158152f35b346100c6575f3660031901126100c6576040517f00000000000000000000000000000000000000000000000000000000000000006001600160a01b03168152602090f35b634e487b7160e01b5f52604160045260245ffd5b90601f8019910116810190811067ffffffffffffffff82111761079b57604052565b610765565b604051906107b061020083610779565b565b51906107b0826100ca565b519060068210156100c657565b519081151582036100c657565b519060ff821682036100c657565b67ffffffffffffffff811161079b57601f01601f191660200190565b81601f820112156100c657805190610818826107e5565b926108266040519485610779565b828452602083830101116100c657815f9260208093018386015e8301015290565b6020818303126100c65780519067ffffffffffffffff82116100c65701610200818303126100c6576108776107a0565b91610881826107b2565b835261088f602083016107b2565b60208401526108a0604083016107b2565b60408401526108b1606083016107b2565b60608401526108c2608083016107b2565b608084015260a082015160a084015260c082015160c084015260e082015160e08401526101008201516101008401526108fe61012083016107bd565b61012084015261091161014083016107ca565b61014084015261092461016083016107ca565b61016084015261093761018083016107d7565b6101808401526101a082015167ffffffffffffffff81116100c6578161095e918401610801565b6101a08401526101c082015167ffffffffffffffff81116100c65781610985918401610801565b6101c08401526101e082015167ffffffffffffffff81116100c6576109aa9201610801565b6101e082015290565b6040513d5f823e3d90fd5b908160209103126100c6575190565b604051633e8cf2cb60e11b81527f000000000000000000000000000000000000000000000000000000000000000060048201525f816024816001600160a01b037f0000000000000000000000000000000000000000000000000000000000000000165afa801561041257610a50915f91610ac3575b50516001600160a01b031690565b6001600160a01b03811615610abe57610a71906001600160a01b0316610241565b6040516370a0823160e01b815230600482015290602090829060249082905afa908115610412575f91610aa2575090565b610abb915060203d60201161040b576103fd8183610779565b90565b505f90565b610ad791503d805f833e6105b28183610779565b5f610a42565b604051633e8cf2cb60e11b81527f00000000000000000000000000000000000000000000000000000000000000006004820152905f826024816001600160a01b037f0000000000000000000000000000000000000000000000000000000000000000165afa918215610412575f92610c07575b50602082018051909190610b6c906001600160a01b0316610241565b6001600160a01b03909116908103610b9e57506101c091909101519051610abb91906001600160a01b03165b90610c5b565b604083018051909250610bb9906001600160a01b0316610241565b8103610bdd57506101a091909101519051610abb91906001600160a01b0316610b98565b60608301516001600160a01b031691508114610bf95750505f90565b6101e0610abb920151610c5b565b610c1c9192503d805f833e6105b28183610779565b905f610b50565b634e487b7160e01b5f52602160045260245ffd5b60061115610c4157565b610c23565b908160209103126100c65751610abb816100ca565b6041815103610ce8576001600160a01b038216918215610ce157602082015191606060408201519101515f1a926fa2a8918ca85bafe22016d0b997e4df60600160ff1b038211610ccd57601b84141580610cd6575b610ccd57610cc993610cc461024194610cee565b611113565b1490565b50505050505f90565b50601c841415610cb0565b5050505f90565b50505f90565b60405160208101917f783cf3fdc83d5b0c9e236f4e0bfa8f022a2090d21a4c53f5f99df0d607781fa183527f0000000000000000000000000000000000000000000000000000000000000000604083015230606083015260018060a01b0316608082015260808152610d6160a082610779565b519020610d6c610d9d565b9060405190602082019261190160f01b84526022830152604282015260428152610d97606282610779565b51902090565b7f00000000000000000000000000000000000000000000000000000000000000004614610e7a576040610e6c610d97601660208451610ddc8682610779565b828152017514185b1a5b991c9bdb59515cd8dc9bddd5d85b1b195d60521b81522092600160208251610e0e8482610779565b828152603160f81b91019081522090517f8b73c3c69bb8fe3d512ecc4cf759cc79239f7b179b0ffacaa9a75d522b39400f60208201908152604082019590955260608101919091524660808201523060a082015291829060c0820190565b03601f198101835282610779565b7f000000000000000000000000000000000000000000000000000000000000000090565b634e487b7160e01b5f52601160045260245ffd5b5f198114610ec05760010190565b610e9e565b6101c081015160208201515f939291610ee7916001600160a01b031690610c5b565b610f53575b610f086101a082015160018060a01b0360408401511690610c5b565b610f3e575b6101e0810151606090910151610f2e916001600160a01b0390911690610c5b565b610f3457565b90610abb90610eb2565b91610f4b610f2e91610eb2565b929050610f0d565b60019250610eec565b91611010915f806107b09560405194602086019463a9059cbb60e01b865260018060a01b03166024870152604486015260448552610f9b606486610779565b60018060a01b03169260405194610fb3604087610779565b602086527f5361666545524332303a206c6f772d6c6576656c2063616c6c206661696c65646020870152519082855af13d1561103e573d91610ff4836107e5565b926110026040519485610779565b83523d5f602085013e611384565b8051908115918215611024575b505061113e565b611037925060208091830101910161112a565b5f8061101d565b606091611384565b1561104d57565b60405162461bcd60e51b815260206004820152601860248201527f416d6f756e7420746f6f20736d616c6c20666f722066656500000000000000006044820152606490fd5b91908203918211610ec057565b9060ff16600281111561110a576001190160ff8111610ec05760ff905b16604d8111610ec057600a0a606482029082820460641483151715610ec0576111009161271090049080821061110357505b80926110fb818310611046565b611092565b91565b90506110ee565b5060ff5f6110bc565b91610abb93916111229361119d565b919091611218565b908160209103126100c657610abb906107ca565b1561114557565b60405162461bcd60e51b815260206004820152602a60248201527f5361666545524332303a204552433230206f7065726174696f6e20646964206e6044820152691bdd081cdd58d8d9595960b21b6064820152608490fd5b6fa2a8918ca85bafe22016d0b997e4df60600160ff1b038411611203576020935f9360ff60809460405194855216868401526040830152606082015282805260015afa15610412575f516001600160a01b038116156111fb57905f90565b505f90600190565b505050505f90600390565b60051115610c4157565b6112218161120e565b806112295750565b6112328161120e565b6001810361127f5760405162461bcd60e51b815260206004820152601860248201527f45434453413a20696e76616c6964207369676e617475726500000000000000006044820152606490fd5b6112888161120e565b600281036112d55760405162461bcd60e51b815260206004820152601f60248201527f45434453413a20696e76616c6964207369676e6174757265206c656e677468006044820152606490fd5b806112e160039261120e565b146112e857565b60405162461bcd60e51b815260206004820152602260248201527f45434453413a20696e76616c6964207369676e6174757265202773272076616c604482015261756560f01b6064820152608490fd5b1561133f57565b60405162461bcd60e51b815260206004820152601d60248201527f416464726573733a2063616c6c20746f206e6f6e2d636f6e74726163740000006044820152606490fd5b919290156113a45750815115611398575090565b610abb903b1515611338565b8251909150156113b75750805190602001fd5b604460209160405192839162461bcd60e51b83528160048401528051918291826024860152018484015e5f828201840152601f01601f19168101030190fdfea2646970667358221220a16924bf6accdffecda9cebc1ac7ebad7cdc9a3713fccfdc1cae155dcfb781c964736f6c634300081d00339a98d2f378553651c1f49353593985b1cda0f6d7e9ab1062bb365dc9172a5cd5db73a95b5021282afa069105f6341730da3d69b308a9167526d1d9d4855ce6e6d3e0574cb952cf8d88c9c2b97882e6000237da1d62a64753eaddaf4d9ce7351b4efd0eb8137437cc21ded7c1b056cd5a6e457ad8830e42d74bb9ba46144dbe8318e785d11512625ba8e5486b7d963f337dfc0a628752fe18e284b0375eefe46ca2646970667358221220b7178ba33e0db5a11ad0db8bf29703cab2c607b407243a2c7573b734be74367b64736f6c634300081d003361010080604052346101ce57604081611636803803809161002082856101d2565b8339810103126101ce5780516001600160a01b038116918282036101ce57602001519160015f551561019b5760805260a0524660e0526040516100646040826101d2565b601681527f50616c696e64726f6d65457363726f7757616c6c657400000000000000000000602090910152604080517fd5841ac2316671d82a0b6316f3b37c25b9263de2e5c9e54cefc98911e9c1f8df916100bf90826101d2565b600181526020810190603160f81b82525190206040519060208201927f8b73c3c69bb8fe3d512ecc4cf759cc79239f7b179b0ffacaa9a75d522b39400f8452604083015260608201524660808201523060a082015260a0815261012360c0826101d2565b51902060c05260405161142c908161020a82396080518181816101b3015281816106990152818161073601528181610a0f0152610b20015260a0518181816101830152818161062c0152818161066e015281816109dc01528181610aec0152610d1b015260c05181610e7c015260e05181610d9f0152f35b60405162461bcd60e51b815260206004820152600b60248201526a457363726f77207a65726f60a81b6044820152606490fd5b5f80fd5b601f909101601f19168101906001600160401b038211908210176101f557604052565b634e487b7160e01b5f52604160045260245ffdfe60806040526004361015610011575f80fd5b5f3560e01c806312065fe0146100a4578063145d07051461009f5780632a5851a21461009a5780633644e515146100955780633ccfd60b146100905780635753d9891461008b57806393e74d7f14610086578063c80ec522146100815763e42a96e71461007c575f80fd5b610721565b6106ff565b61064f565b610615565b61014d565b610133565b61010c565b6100db565b346100c6575f3660031901126100c65760206100be6109cd565b604051908152f35b5f80fd5b6001600160a01b038116036100c657565b346100c65760203660031901126100c65760206101026004356100fd816100ca565b610add565b6040519015158152f35b346100c65760203660031901126100c65760206100be60043561012e816100ca565b610cee565b346100c6575f3660031901126100c65760206100be610d9d565b346100c6575f3660031901126100c65760025f54146105d05760025f5560015460ff166105c157604051633e8cf2cb60e11b81527f0000000000000000000000000000000000000000000000000000000000000000600482018190526001600160a01b037f0000000000000000000000000000000000000000000000000000000000000000165f83602481845afa928315610412575f9361059d575b50610120830151916101fa83610c37565b61020383610c37565b6003831493841580610589575b80610575575b6105665780516001600160a01b0316156105575760208101805190919061024d906001600160a01b03165b6001600160a01b031690565b33141580610537575b80610517575b61050857600261026b82610ec5565b106104f957610281600160ff1981541617600155565b8051610295906001600160a01b0316610241565b6040516370a0823160e01b81523060048201526001600160a01b0382169790969193916020886024818c5afa978815610412575f986104d4575b506102d990610c37565b156104685750604081015160049291906020906001600160a01b03169560405194858092632cfc019d60e21b82525afa928315610412575f93610437575b506001600160a01b038316958615610428577f2b50bbeab304785e1247f1e22da0321897c428768d93e80ab1811e9baa9559019361036861037b926103626101808a96015160ff1690565b9061109f565b94819891928680610417575b5050610f5c565b6040805195865260208601929092526001600160a01b031693a45b6040516370a0823160e01b815230600482015290602090829060249082905afa908115610412575f916103e3575b506103d4576103d260015f55565b005b631fea47ef60e01b5f5260045ffd5b610405915060203d60201161040b575b6103fd8183610779565b8101906109be565b5f6103c4565b503d6103f3565b6109b3565b6104219183610f5c565b5f86610374565b630665334760e11b5f5260045ffd5b61045a91935060203d602011610461575b6104528183610779565b810190610c46565b915f610317565b503d610448565b515f9594507f2b50bbeab304785e1247f1e22da0321897c428768d93e80ab1811e9baa955901926104cc9250906104ab9086906001600160a01b03168093610f5c565b604080519586525f60208701526001600160a01b0390911694918291820190565b0390a4610396565b6102d99198506104f29060203d60201161040b576103fd8183610779565b97906102cf565b633724e34360e11b5f5260045ffd5b630eebd6cd60e21b5f5260045ffd5b50606081015161052f906001600160a01b0316610241565b33141561025c565b50604081015161054f906001600160a01b0316610241565b331415610256565b6381c609f760e01b5f5260045ffd5b635448814d60e11b5f5260045ffd5b5061057f84610c37565b6005841415610216565b5061059384610c37565b6004841415610210565b6105ba9193503d805f833e6105b28183610779565b810190610847565b915f6101e9565b636507689f60e01b5f5260045ffd5b60405162461bcd60e51b815260206004820152601f60248201527f5265656e7472616e637947756172643a207265656e7472616e742063616c6c006044820152606490fd5b346100c6575f3660031901126100c65760206040517f00000000000000000000000000000000000000000000000000000000000000008152f35b346100c6575f3660031901126100c657604051633e8cf2cb60e11b81527f000000000000000000000000000000000000000000000000000000000000000060048201525f816024817f00000000000000000000000000000000000000000000000000000000000000006001600160a01b03165afa8015610412576106da915f916106e5575b50610ec5565b604051908152602090f35b6106f991503d805f833e6105b28183610779565b5f6106d4565b346100c6575f3660031901126100c657602060ff600154166040519015158152f35b346100c6575f3660031901126100c6576040517f00000000000000000000000000000000000000000000000000000000000000006001600160a01b03168152602090f35b634e487b7160e01b5f52604160045260245ffd5b90601f8019910116810190811067ffffffffffffffff82111761079b57604052565b610765565b604051906107b061020083610779565b565b51906107b0826100ca565b519060068210156100c657565b519081151582036100c657565b519060ff821682036100c657565b67ffffffffffffffff811161079b57601f01601f191660200190565b81601f820112156100c657805190610818826107e5565b926108266040519485610779565b828452602083830101116100c657815f9260208093018386015e8301015290565b6020818303126100c65780519067ffffffffffffffff82116100c65701610200818303126100c6576108776107a0565b91610881826107b2565b835261088f602083016107b2565b60208401526108a0604083016107b2565b60408401526108b1606083016107b2565b60608401526108c2608083016107b2565b608084015260a082015160a084015260c082015160c084015260e082015160e08401526101008201516101008401526108fe61012083016107bd565b61012084015261091161014083016107ca565b61014084015261092461016083016107ca565b61016084015261093761018083016107d7565b6101808401526101a082015167ffffffffffffffff81116100c6578161095e918401610801565b6101a08401526101c082015167ffffffffffffffff81116100c65781610985918401610801565b6101c08401526101e082015167ffffffffffffffff81116100c6576109aa9201610801565b6101e082015290565b6040513d5f823e3d90fd5b908160209103126100c6575190565b604051633e8cf2cb60e11b81527f000000000000000000000000000000000000000000000000000000000000000060048201525f816024816001600160a01b037f0000000000000000000000000000000000000000000000000000000000000000165afa801561041257610a50915f91610ac3575b50516001600160a01b031690565b6001600160a01b03811615610abe57610a71906001600160a01b0316610241565b6040516370a0823160e01b815230600482015290602090829060249082905afa908115610412575f91610aa2575090565b610abb915060203d60201161040b576103fd8183610779565b90565b505f90565b610ad791503d805f833e6105b28183610779565b5f610a42565b604051633e8cf2cb60e11b81527f00000000000000000000000000000000000000000000000000000000000000006004820152905f826024816001600160a01b037f0000000000000000000000000000000000000000000000000000000000000000165afa918215610412575f92610c07575b50602082018051909190610b6c906001600160a01b0316610241565b6001600160a01b03909116908103610b9e57506101c091909101519051610abb91906001600160a01b03165b90610c5b565b604083018051909250610bb9906001600160a01b0316610241565b8103610bdd57506101a091909101519051610abb91906001600160a01b0316610b98565b60608301516001600160a01b031691508114610bf95750505f90565b6101e0610abb920151610c5b565b610c1c9192503d805f833e6105b28183610779565b905f610b50565b634e487b7160e01b5f52602160045260245ffd5b60061115610c4157565b610c23565b908160209103126100c65751610abb816100ca565b6041815103610ce8576001600160a01b038216918215610ce157602082015191606060408201519101515f1a926fa2a8918ca85bafe22016d0b997e4df60600160ff1b038211610ccd57601b84141580610cd6575b610ccd57610cc993610cc461024194610cee565b611113565b1490565b50505050505f90565b50601c841415610cb0565b5050505f90565b50505f90565b60405160208101917f783cf3fdc83d5b0c9e236f4e0bfa8f022a2090d21a4c53f5f99df0d607781fa183527f0000000000000000000000000000000000000000000000000000000000000000604083015230606083015260018060a01b0316608082015260808152610d6160a082610779565b519020610d6c610d9d565b9060405190602082019261190160f01b84526022830152604282015260428152610d97606282610779565b51902090565b7f00000000000000000000000000000000000000000000000000000000000000004614610e7a576040610e6c610d97601660208451610ddc8682610779565b828152017514185b1a5b991c9bdb59515cd8dc9bddd5d85b1b195d60521b81522092600160208251610e0e8482610779565b828152603160f81b91019081522090517f8b73c3c69bb8fe3d512ecc4cf759cc79239f7b179b0ffacaa9a75d522b39400f60208201908152604082019590955260608101919091524660808201523060a082015291829060c0820190565b03601f198101835282610779565b7f000000000000000000000000000000000000000000000000000000000000000090565b634e487b7160e01b5f52601160045260245ffd5b5f198114610ec05760010190565b610e9e565b6101c081015160208201515f939291610ee7916001600160a01b031690610c5b565b610f53575b610f086101a082015160018060a01b0360408401511690610c5b565b610f3e575b6101e0810151606090910151610f2e916001600160a01b0390911690610c5b565b610f3457565b90610abb90610eb2565b91610f4b610f2e91610eb2565b929050610f0d565b60019250610eec565b91611010915f806107b09560405194602086019463a9059cbb60e01b865260018060a01b03166024870152604486015260448552610f9b606486610779565b60018060a01b03169260405194610fb3604087610779565b602086527f5361666545524332303a206c6f772d6c6576656c2063616c6c206661696c65646020870152519082855af13d1561103e573d91610ff4836107e5565b926110026040519485610779565b83523d5f602085013e611384565b8051908115918215611024575b505061113e565b611037925060208091830101910161112a565b5f8061101d565b606091611384565b1561104d57565b60405162461bcd60e51b815260206004820152601860248201527f416d6f756e7420746f6f20736d616c6c20666f722066656500000000000000006044820152606490fd5b91908203918211610ec057565b9060ff16600281111561110a576001190160ff8111610ec05760ff905b16604d8111610ec057600a0a606482029082820460641483151715610ec0576111009161271090049080821061110357505b80926110fb818310611046565b611092565b91565b90506110ee565b5060ff5f6110bc565b91610abb93916111229361119d565b919091611218565b908160209103126100c657610abb906107ca565b1561114557565b60405162461bcd60e51b815260206004820152602a60248201527f5361666545524332303a204552433230206f7065726174696f6e20646964206e6044820152691bdd081cdd58d8d9595960b21b6064820152608490fd5b6fa2a8918ca85bafe22016d0b997e4df60600160ff1b038411611203576020935f9360ff60809460405194855216868401526040830152606082015282805260015afa15610412575f516001600160a01b038116156111fb57905f90565b505f90600190565b505050505f90600390565b60051115610c4157565b6112218161120e565b806112295750565b6112328161120e565b6001810361127f5760405162461bcd60e51b815260206004820152601860248201527f45434453413a20696e76616c6964207369676e617475726500000000000000006044820152606490fd5b6112888161120e565b600281036112d55760405162461bcd60e51b815260206004820152601f60248201527f45434453413a20696e76616c6964207369676e6174757265206c656e677468006044820152606490fd5b806112e160039261120e565b146112e857565b60405162461bcd60e51b815260206004820152602260248201527f45434453413a20696e76616c6964207369676e6174757265202773272076616c604482015261756560f01b6064820152608490fd5b1561133f57565b60405162461bcd60e51b815260206004820152601d60248201527f416464726573733a2063616c6c20746f206e6f6e2d636f6e74726163740000006044820152606490fd5b919290156113a45750815115611398575090565b610abb903b1515611338565b8251909150156113b75750805190602001fd5b604460209160405192839162461bcd60e51b83528160048401528051918291826024860152018484015e5f828201840152601f01601f19168101030190fdfea2646970667358221220a16924bf6accdffecda9cebc1ac7ebad7cdc9a3713fccfdc1cae155dcfb781c964736f6c634300081d0033","linkReferences":{}},"methodIdentifiers":{"DISPUTE_LONG_TIMEOUT()":"1452483b","DOMAIN_SEPARATOR()":"3644e515","GRACE_PERIOD()":"c1a287e2","TIMEOUT_BUFFER()":"4186928c","WALLET_BYTECODE_HASH()":"589ac8e3","acceptEscrow(uint256,bytes)":"708f65ca","autoRelease(uint256)":"459b860e","cancelByTimeout(uint256)":"da183b02","confirmDelivery(uint256,bytes)":"c37775a3","confirmDeliverySigned(uint256,bytes,uint256,uint256,bytes)":"2f9bfda2","createEscrow(address,address,uint256,uint256,address,string,string,bytes)":"311a2e55","createEscrowAndDeposit(address,address,uint256,uint256,address,string,string,bytes)":"2d34515b","deposit(uint256,bytes)":"5d303519","disputeStatus(uint256)":"10f169e8","feeReceiver()":"b3f00674","getEscrow(uint256)":"7d19e596","getNonceBitmap(uint256,address,uint256)":"9dede53c","getWalletAuthorizationDigest(uint256,address)":"d4ffbee4","nextEscrowId()":"89cb29dd","requestCancel(uint256,bytes)":"83504156","startDispute(uint256)":"c0cfa7e5","startDisputeSigned(uint256,bytes,uint256,uint256)":"06075a15","submitArbiterDecision(uint256,uint8,string,bytes)":"2d471a50","submitDisputeMessage(uint256,uint8,string)":"6232ef60"},"id":0}